{
  "_format": "hh-sol-artifact-1",
  "contractName": "AuditTrail",
  "sourceName": "contracts/AuditTrails.sol",
  "abi": [
    {
      "inputs": [
        {
          "internalType": "address[3]",
          "name": "_approvers",
          "type": "address[3]"
        }
      ],
      "stateMutability": "nonpayable",
      "type": "constructor"
    },
    {
      "anonymous": false,
      "inputs": [
        {
          "indexed": false,
          "internalType": "uint256",
          "name": "index",
          "type": "uint256"
        },
        {
          "indexed": false,
          "internalType": "bytes32",
          "name": "blockHash",
          "type": "bytes32"
        },
        {
          "indexed": false,
          "internalType": "bytes32",
          "name": "prevHash",
          "type": "bytes32"
        }
      ],
      "name": "BlockAdded",
      "type": "event"
    },
    {
      "inputs": [
        {
          "internalType": "uint256",
          "name": "",
          "type": "uint256"
        }
      ],
      "name": "approvalCount",
      "outputs": [
        {
          "internalType": "uint8",
          "name": "",
          "type": "uint8"
        }
      ],
      "stateMutability": "view",
      "type": "function"
    },
    {
      "inputs": [
        {
          "internalType": "uint256",
          "name": "",
          "type": "uint256"
        },
        {
          "internalType": "address",
          "name": "",
          "type": "address"
        }
      ],
      "name": "approvals",
      "outputs": [
        {
          "internalType": "bool",
          "name": "",
          "type": "bool"
        }
      ],
      "stateMutability": "view",
      "type": "function"
    },
    {
      "inputs": [
        {
          "internalType": "uint256",
          "name": "blockIndex",
          "type": "uint256"
        }
      ],
      "name": "approveBlock",
      "outputs": [],
      "stateMutability": "nonpayable",
      "type": "function"
    },
    {
      "inputs": [
        {
          "internalType": "uint256",
          "name": "",
          "type": "uint256"
        }
      ],
      "name": "approvers",
      "outputs": [
        {
          "internalType": "address",
          "name": "",
          "type": "address"
        }
      ],
      "stateMutability": "view",
      "type": "function"
    },
    {
      "inputs": [
        {
          "internalType": "uint256",
          "name": "",
          "type": "uint256"
        }
      ],
      "name": "chain",
      "outputs": [
        {
          "components": [
            {
              "internalType": "string",
              "name": "sender",
              "type": "string"
            },
            {
              "internalType": "string",
              "name": "receiver",
              "type": "string"
            },
            {
              "internalType": "uint256",
              "name": "amount",
              "type": "uint256"
            },
            {
              "internalType": "string",
              "name": "purpose",
              "type": "string"
            }
          ],
          "internalType": "struct AuditTrail.Record",
          "name": "record",
          "type": "tuple"
        },
        {
          "internalType": "address",
          "name": "creatorId",
          "type": "address"
        },
        {
          "internalType": "bytes32",
          "name": "prevHash",
          "type": "bytes32"
        },
        {
          "internalType": "uint256",
          "name": "timestamp",
          "type": "uint256"
        },
        {
          "internalType": "uint256",
          "name": "nonce",
          "type": "uint256"
        },
        {
          "internalType": "bytes32",
          "name": "blockHash",
          "type": "bytes32"
        }
      ],
      "stateMutability": "view",
      "type": "function"
    },
    {
      "inputs": [],
      "name": "difficulty",
      "outputs": [
        {
          "internalType": "uint256",
          "name": "",
          "type": "uint256"
        }
      ],
      "stateMutability": "view",
      "type": "function"
    },
    {
      "inputs": [
        {
          "internalType": "uint256",
          "name": "index",
          "type": "uint256"
        }
      ],
      "name": "getBlock",
      "outputs": [
        {
          "internalType": "string",
          "name": "sender",
          "type": "string"
        },
        {
          "internalType": "string",
          "name": "receiver",
          "type": "string"
        },
        {
          "internalType": "uint256",
          "name": "amount",
          "type": "uint256"
        },
        {
          "internalType": "string",
          "name": "purpose",
          "type": "string"
        },
        {
          "internalType": "bytes32",
          "name": "blockHash",
          "type": "bytes32"
        },
        {
          "internalType": "bytes32",
          "name": "prevHash",
          "type": "bytes32"
        },
        {
          "internalType": "uint256",
          "name": "timestamp",
          "type": "uint256"
        }
      ],
      "stateMutability": "view",
      "type": "function"
    },
    {
      "inputs": [],
      "name": "getChainLength",
      "outputs": [
        {
          "internalType": "uint256",
          "name": "",
          "type": "uint256"
        }
      ],
      "stateMutability": "view",
      "type": "function"
    },
    {
      "inputs": [],
      "name": "isValid",
      "outputs": [
        {
          "internalType": "bool",
          "name": "",
          "type": "bool"
        }
      ],
      "stateMutability": "view",
      "type": "function"
    },
    {
      "inputs": [
        {
          "internalType": "string",
          "name": "sender",
          "type": "string"
        },
        {
          "internalType": "string",
          "name": "receiver",
          "type": "string"
        },
        {
          "internalType": "uint256",
          "name": "amount",
          "type": "uint256"
        },
        {
          "internalType": "string",
          "name": "purpose",
          "type": "string"
        }
      ],
      "name": "proposeBlock",
      "outputs": [
        {
          "internalType": "uint256",
          "name": "",
          "type": "uint256"
        }
      ],
      "stateMutability": "nonpayable",
      "type": "function"
    },
    {
      "inputs": [
        {
          "internalType": "uint256",
          "name": "_difficulty",
          "type": "uint256"
        }
      ],
      "name": "setDifficulty",
      "outputs": [],
      "stateMutability": "nonpayable",
      "type": "function"
    }
  ],
  "bytecode": "0x6080604052600160045534801561001557600080fd5b50604051612df6380380612df6833981810160405281019061003791906104c1565b806001906003610048929190610273565b50600060405160200161005a90610545565b60405160208183030381529060405280519060200120905060006040518060c0016040528060405180608001604052806040518060400160405280600781526020017f47656e657369730000000000000000000000000000000000000000000000000081525081526020016040518060400160405280600781526020017f47656e65736973000000000000000000000000000000000000000000000000008152508152602001600081526020016040518060400160405280600d81526020017f47656e6573697320426c6f636b0000000000000000000000000000000000000081525081525081526020013373ffffffffffffffffffffffffffffffffffffffff1681526020016000801b81526020014281526020016000815260200183815250908060018154018082558091505060019003906000526020600020906009020160009091909190915060008201518160000160008201518160000190816101c2919061077b565b5060208201518160010190816101d8919061077b565b506040820151816002015560608201518160030190816101f8919061077b565b50505060208201518160040160006101000a81548173ffffffffffffffffffffffffffffffffffffffff021916908373ffffffffffffffffffffffffffffffffffffffff16021790555060408201518160050155606082015181600601556080820151816007015560a082015181600801555050505061084d565b82600381019282156102df579160200282015b828111156102de5782518260006101000a81548173ffffffffffffffffffffffffffffffffffffffff021916908373ffffffffffffffffffffffffffffffffffffffff16021790555091602001919060010190610286565b5b5090506102ec91906102f0565b5090565b5b808211156103095760008160009055506001016102f1565b5090565b6000604051905090565b600080fd5b600080fd5b6000601f19601f8301169050919050565b7f4e487b7100000000000000000000000000000000000000000000000000000000600052604160045260246000fd5b61036a82610321565b810181811067ffffffffffffffff8211171561038957610388610332565b5b80604052505050565b600061039c61030d565b90506103a88282610361565b919050565b600067ffffffffffffffff8211156103c8576103c7610332565b5b602082029050919050565b600080fd5b600073ffffffffffffffffffffffffffffffffffffffff82169050919050565b6000610403826103d8565b9050919050565b610413816103f8565b811461041e57600080fd5b50565b6000815190506104308161040a565b92915050565b6000610449610444846103ad565b610392565b90508060208402830185811115610463576104626103d3565b5b835b8181101561048c57806104788882610421565b845260208401935050602081019050610465565b5050509392505050565b600082601f8301126104ab576104aa61031c565b5b60036104b8848285610436565b91505092915050565b6000606082840312156104d7576104d6610317565b5b60006104e584828501610496565b91505092915050565b600081905092915050565b7f47656e6573697300000000000000000000000000000000000000000000000000600082015250565b600061052f6007836104ee565b915061053a826104f9565b600782019050919050565b600061055082610522565b9150819050919050565b600081519050919050565b7f4e487b7100000000000000000000000000000000000000000000000000000000600052602260045260246000fd5b600060028204905060018216806105ac57607f821691505b6020821081036105bf576105be610565565b5b50919050565b60008190508160005260206000209050919050565b60006020601f8301049050919050565b600082821b905092915050565b6000600883026106277fffffffffffffffffffffffffffffffffffffffffffffffffffffffffffffffff826105ea565b61063186836105ea565b95508019841693508086168417925050509392505050565b6000819050919050565b6000819050919050565b600061067861067361066e84610649565b610653565b610649565b9050919050565b6000819050919050565b6106928361065d565b6106a661069e8261067f565b8484546105f7565b825550505050565b600090565b6106bb6106ae565b6106c6818484610689565b505050565b5b818110156106ea576106df6000826106b3565b6001810190506106cc565b5050565b601f82111561072f57610700816105c5565b610709846105da565b81016020851015610718578190505b61072c610724856105da565b8301826106cb565b50505b505050565b600082821c905092915050565b600061075260001984600802610734565b1980831691505092915050565b600061076b8383610741565b9150826002028217905092915050565b6107848261055a565b67ffffffffffffffff81111561079d5761079c610332565b5b6107a78254610594565b6107b28282856106ee565b600060209050601f8311600181146107e557600084156107d3578287015190505b6107dd858261075f565b865550610845565b601f1984166107f3866105c5565b60005b8281101561081b578489015182556001820191506020850194506020810190506107f6565b868310156108385784890151610834601f891682610741565b8355505b6001600288020188555050505b505050505050565b61259a8061085c6000396000f3fe608060405234801561001057600080fd5b50600436106100a95760003560e01c80635852cc0c116100715780635852cc0c1461017e578063602512e1146101b35780638f2bab07146101cf578063ab2850da146101ed578063bb5d40eb1461021d578063d3650fb81461023b576100a9565b806304c07569146100ae57806319cae462146100e4578063313ab4eb1461010257806340ad01ea1461013257806352e2c5bc14610162575b600080fd5b6100c860048036038101906100c39190611749565b61026b565b6040516100db979695949392919061182e565b60405180910390f35b6100ec61058c565b6040516100f991906118b2565b60405180910390f35b61011c60048036038101906101179190611a02565b610592565b60405161012991906118b2565b60405180910390f35b61014c60048036038101906101479190611749565b610a94565b6040516101599190611ad9565b60405180910390f35b61017c60048036038101906101779190611749565b610ab4565b005b61019860048036038101906101939190611749565b610d46565b6040516101aa96959493929190611bff565b60405180910390f35b6101cd60048036038101906101c89190611749565b610f7c565b005b6101d7610fc9565b6040516101e491906118b2565b60405180910390f35b61020760048036038101906102029190611c93565b610fd5565b6040516102149190611cee565b60405180910390f35b610225611004565b6040516102329190611cee565b60405180910390f35b61025560048036038101906102509190611749565b6115b9565b6040516102629190611d09565b60405180910390f35b606080600060606000806000808054905088106102bd576040517f08c379a00000000000000000000000000000000000000000000000000000000081526004016102b490611d70565b60405180910390fd5b60008089815481106102d2576102d1611d90565b5b90600052602060002090600902016040518060c00160405290816000820160405180608001604052908160008201805461030b90611dee565b80601f016020809104026020016040519081016040528092919081815260200182805461033790611dee565b80156103845780601f1061035957610100808354040283529160200191610384565b820191906000526020600020905b81548152906001019060200180831161036757829003601f168201915b5050505050815260200160018201805461039d90611dee565b80601f01602080910402602001604051908101604052809291908181526020018280546103c990611dee565b80156104165780601f106103eb57610100808354040283529160200191610416565b820191906000526020600020905b8154815290600101906020018083116103f957829003601f168201915b505050505081526020016002820154815260200160038201805461043990611dee565b80601f016020809104026020016040519081016040528092919081815260200182805461046590611dee565b80156104b25780601f10610487576101008083540402835291602001916104b2565b820191906000526020600020905b81548152906001019060200180831161049557829003601f168201915b50505050508152505081526020016004820160009054906101000a900473ffffffffffffffffffffffffffffffffffffffff1673ffffffffffffffffffffffffffffffffffffffff1673ffffffffffffffffffffffffffffffffffffffff16815260200160058201548152602001600682015481526020016007820154815260200160088201548152505090508060000151600001518160000151602001518260000151604001518360000151606001518460a0015185604001518660600151975097509750975097509750975050919395979092949650565b60045481565b600061059d336115ef565b6105dc576040517f08c379a00000000000000000000000000000000000000000000000000000000081526004016105d390611e6b565b60405180910390fd5b60008060016000805490506105f19190611eba565b8154811061060257610601611d90565b5b90600052602060002090600902016040518060c00160405290816000820160405180608001604052908160008201805461063b90611dee565b80601f016020809104026020016040519081016040528092919081815260200182805461066790611dee565b80156106b45780601f10610689576101008083540402835291602001916106b4565b820191906000526020600020905b81548152906001019060200180831161069757829003601f168201915b505050505081526020016001820180546106cd90611dee565b80601f01602080910402602001604051908101604052809291908181526020018280546106f990611dee565b80156107465780601f1061071b57610100808354040283529160200191610746565b820191906000526020600020905b81548152906001019060200180831161072957829003601f168201915b505050505081526020016002820154815260200160038201805461076990611dee565b80601f016020809104026020016040519081016040528092919081815260200182805461079590611dee565b80156107e25780601f106107b7576101008083540402835291602001916107e2565b820191906000526020600020905b8154815290600101906020018083116107c557829003601f168201915b50505050508152505081526020016004820160009054906101000a900473ffffffffffffffffffffffffffffffffffffffff1673ffffffffffffffffffffffffffffffffffffffff1673ffffffffffffffffffffffffffffffffffffffff16815260200160058201548152602001600682015481526020016007820154815260200160088201548152505090506000808042905060006103e890506000805b828110156108d15761089d8c8c8c8c338c60a001518a8d61168a565b94506108a8856116cf565b156108b657600191506108d1565b85806108c190611eee565b9650508080600101915050610881565b5080610912576040517f08c379a000000000000000000000000000000000000000000000000000000000815260040161090990611fa8565b60405180910390fd5b60006040518060c0016040528060405180608001604052808f81526020018e81526020018d81526020018c81525081526020013373ffffffffffffffffffffffffffffffffffffffff1681526020018860a001518152602001858152602001878152602001868152509050600081908060018154018082558091505060019003906000526020600020906009020160009091909190915060008201518160000160008201518160000190816109c79190612174565b5060208201518160010190816109dd9190612174565b506040820151816002015560608201518160030190816109fd9190612174565b50505060208201518160040160006101000a81548173ffffffffffffffffffffffffffffffffffffffff021916908373ffffffffffffffffffffffffffffffffffffffff16021790555060408201518160050155606082015181600601556080820151816007015560a0820151816008015550506001600080549050610a839190611eba565b975050505050505050949350505050565b60066020528060005260406000206000915054906101000a900460ff1681565b610abd336115ef565b610afc576040517f08c379a0000000000000000000000000000000000000000000000000000000008152600401610af390611e6b565b60405180910390fd5b6000805490508110610b43576040517f08c379a0000000000000000000000000000000000000000000000000000000008152600401610b3a90611d70565b60405180910390fd5b6005600082815260200190815260200160002060003373ffffffffffffffffffffffffffffffffffffffff1673ffffffffffffffffffffffffffffffffffffffff16815260200190815260200160002060009054906101000a900460ff1615610be1576040517f08c379a0000000000000000000000000000000000000000000000000000000008152600401610bd8906122b8565b60405180910390fd5b60016005600083815260200190815260200160002060003373ffffffffffffffffffffffffffffffffffffffff1673ffffffffffffffffffffffffffffffffffffffff16815260200190815260200160002060006101000a81548160ff02191690831515021790555060016006600083815260200190815260200160002060008282829054906101000a900460ff16610c7a91906122d8565b92506101000a81548160ff021916908360ff16021790555060036006600083815260200190815260200160002060009054906101000a900460ff1660ff1603610d43577f146cdcb5e4aa13ca650cb5e8bda0e95a5cd3a1651990bd96048c14a9191d6e898160008381548110610cf357610cf2611d90565b5b90600052602060002090600902016008015460008481548110610d1957610d18611d90565b5b906000526020600020906009020160050154604051610d3a9392919061230d565b60405180910390a15b50565b60008181548110610d5657600080fd5b906000526020600020906009020160009150905080600001604051806080016040529081600082018054610d8990611dee565b80601f0160208091040260200160405190810160405280929190818152602001828054610db590611dee565b8015610e025780601f10610dd757610100808354040283529160200191610e02565b820191906000526020600020905b815481529060010190602001808311610de557829003601f168201915b50505050508152602001600182018054610e1b90611dee565b80601f0160208091040260200160405190810160405280929190818152602001828054610e4790611dee565b8015610e945780601f10610e6957610100808354040283529160200191610e94565b820191906000526020600020905b815481529060010190602001808311610e7757829003601f168201915b5050505050815260200160028201548152602001600382018054610eb790611dee565b80601f0160208091040260200160405190810160405280929190818152602001828054610ee390611dee565b8015610f305780601f10610f0557610100808354040283529160200191610f30565b820191906000526020600020905b815481529060010190602001808311610f1357829003601f168201915b505050505081525050908060040160009054906101000a900473ffffffffffffffffffffffffffffffffffffffff16908060050154908060060154908060070154908060080154905086565b60008111610fbf576040517f08c379a0000000000000000000000000000000000000000000000000000000008152600401610fb6906123b6565b60405180910390fd5b8060048190555050565b60008080549050905090565b60056020528160005260406000206020528060005260406000206000915091509054906101000a900460ff1681565b600080600190505b6000805490508110156115b057600080828154811061102e5761102d611d90565b5b90600052602060002090600902016040518060c00160405290816000820160405180608001604052908160008201805461106790611dee565b80601f016020809104026020016040519081016040528092919081815260200182805461109390611dee565b80156110e05780601f106110b5576101008083540402835291602001916110e0565b820191906000526020600020905b8154815290600101906020018083116110c357829003601f168201915b505050505081526020016001820180546110f990611dee565b80601f016020809104026020016040519081016040528092919081815260200182805461112590611dee565b80156111725780601f1061114757610100808354040283529160200191611172565b820191906000526020600020905b81548152906001019060200180831161115557829003601f168201915b505050505081526020016002820154815260200160038201805461119590611dee565b80601f01602080910402602001604051908101604052809291908181526020018280546111c190611dee565b801561120e5780601f106111e35761010080835404028352916020019161120e565b820191906000526020600020905b8154815290600101906020018083116111f157829003601f168201915b50505050508152505081526020016004820160009054906101000a900473ffffffffffffffffffffffffffffffffffffffff1673ffffffffffffffffffffffffffffffffffffffff1673ffffffffffffffffffffffffffffffffffffffff16815260200160058201548152602001600682015481526020016007820154815260200160088201548152505090506000806001846112ab9190611eba565b815481106112bc576112bb611d90565b5b90600052602060002090600902016040518060c0016040529081600082016040518060800160405290816000820180546112f590611dee565b80601f016020809104026020016040519081016040528092919081815260200182805461132190611dee565b801561136e5780601f106113435761010080835404028352916020019161136e565b820191906000526020600020905b81548152906001019060200180831161135157829003601f168201915b5050505050815260200160018201805461138790611dee565b80601f01602080910402602001604051908101604052809291908181526020018280546113b390611dee565b80156114005780601f106113d557610100808354040283529160200191611400565b820191906000526020600020905b8154815290600101906020018083116113e357829003601f168201915b505050505081526020016002820154815260200160038201805461142390611dee565b80601f016020809104026020016040519081016040528092919081815260200182805461144f90611dee565b801561149c5780601f106114715761010080835404028352916020019161149c565b820191906000526020600020905b81548152906001019060200180831161147f57829003601f168201915b50505050508152505081526020016004820160009054906101000a900473ffffffffffffffffffffffffffffffffffffffff1673ffffffffffffffffffffffffffffffffffffffff1673ffffffffffffffffffffffffffffffffffffffff16815260200160058201548152602001600682015481526020016007820154815260200160088201548152505090508060a0015182604001511461154457600093505050506115b6565b60006115868360000151600001518460000151602001518560000151604001518660000151606001518760200151886040015189606001518a6080015161168a565b90508260a0015181146115a05760009450505050506115b6565b505050808060010191505061100c565b50600190505b90565b600181600381106115c957600080fd5b016000915054906101000a900473ffffffffffffffffffffffffffffffffffffffff1681565b600080600090505b600381101561167f578273ffffffffffffffffffffffffffffffffffffffff166001826003811061162b5761162a611d90565b5b0160009054906101000a900473ffffffffffffffffffffffffffffffffffffffff1673ffffffffffffffffffffffffffffffffffffffff1603611672576001915050611685565b80806001019150506115f7565b50600090505b919050565b600088888888888888886040516020016116ab98979695949392919061249c565b60405160208183030381529060405280519060200120905098975050505050505050565b600060106004546116e09190612522565b6101006116ed9190611eba565b60ff8360001c1660ff16109050919050565b6000604051905090565b600080fd5b600080fd5b6000819050919050565b61172681611713565b811461173157600080fd5b50565b6000813590506117438161171d565b92915050565b60006020828403121561175f5761175e611709565b5b600061176d84828501611734565b91505092915050565b600081519050919050565b600082825260208201905092915050565b60005b838110156117b0578082015181840152602081019050611795565b60008484015250505050565b6000601f19601f8301169050919050565b60006117d882611776565b6117e28185611781565b93506117f2818560208601611792565b6117fb816117bc565b840191505092915050565b61180f81611713565b82525050565b6000819050919050565b61182881611815565b82525050565b600060e0820190508181036000830152611848818a6117cd565b9050818103602083015261185c81896117cd565b905061186b6040830188611806565b818103606083015261187d81876117cd565b905061188c608083018661181f565b61189960a083018561181f565b6118a660c0830184611806565b98975050505050505050565b60006020820190506118c76000830184611806565b92915050565b600080fd5b600080fd5b7f4e487b7100000000000000000000000000000000000000000000000000000000600052604160045260246000fd5b61190f826117bc565b810181811067ffffffffffffffff8211171561192e5761192d6118d7565b5b80604052505050565b60006119416116ff565b905061194d8282611906565b919050565b600067ffffffffffffffff82111561196d5761196c6118d7565b5b611976826117bc565b9050602081019050919050565b82818337600083830152505050565b60006119a56119a084611952565b611937565b9050828152602081018484840111156119c1576119c06118d2565b5b6119cc848285611983565b509392505050565b600082601f8301126119e9576119e86118cd565b5b81356119f9848260208601611992565b91505092915050565b60008060008060808587031215611a1c57611a1b611709565b5b600085013567ffffffffffffffff811115611a3a57611a3961170e565b5b611a46878288016119d4565b945050602085013567ffffffffffffffff811115611a6757611a6661170e565b5b611a73878288016119d4565b9350506040611a8487828801611734565b925050606085013567ffffffffffffffff811115611aa557611aa461170e565b5b611ab1878288016119d4565b91505092959194509250565b600060ff82169050919050565b611ad381611abd565b82525050565b6000602082019050611aee6000830184611aca565b92915050565b600082825260208201905092915050565b6000611b1082611776565b611b1a8185611af4565b9350611b2a818560208601611792565b611b33816117bc565b840191505092915050565b611b4781611713565b82525050565b60006080830160008301518482036000860152611b6a8282611b05565b91505060208301518482036020860152611b848282611b05565b9150506040830151611b996040860182611b3e565b5060608301518482036060860152611bb18282611b05565b9150508091505092915050565b600073ffffffffffffffffffffffffffffffffffffffff82169050919050565b6000611be982611bbe565b9050919050565b611bf981611bde565b82525050565b600060c0820190508181036000830152611c198189611b4d565b9050611c286020830188611bf0565b611c35604083018761181f565b611c426060830186611806565b611c4f6080830185611806565b611c5c60a083018461181f565b979650505050505050565b611c7081611bde565b8114611c7b57600080fd5b50565b600081359050611c8d81611c67565b92915050565b60008060408385031215611caa57611ca9611709565b5b6000611cb885828601611734565b9250506020611cc985828601611c7e565b9150509250929050565b60008115159050919050565b611ce881611cd3565b82525050565b6000602082019050611d036000830184611cdf565b92915050565b6000602082019050611d1e6000830184611bf0565b92915050565b7f496e76616c696420626c6f636b20696e64657800000000000000000000000000600082015250565b6000611d5a601383611781565b9150611d6582611d24565b602082019050919050565b60006020820190508181036000830152611d8981611d4d565b9050919050565b7f4e487b7100000000000000000000000000000000000000000000000000000000600052603260045260246000fd5b7f4e487b7100000000000000000000000000000000000000000000000000000000600052602260045260246000fd5b60006002820490506001821680611e0657607f821691505b602082108103611e1957611e18611dbf565b5b50919050565b7f4e6f7420616e20617574686f72697a656420617070726f766572000000000000600082015250565b6000611e55601a83611781565b9150611e6082611e1f565b602082019050919050565b60006020820190508181036000830152611e8481611e48565b9050919050565b7f4e487b7100000000000000000000000000000000000000000000000000000000600052601160045260246000fd5b6000611ec582611713565b9150611ed083611713565b9250828203905081811115611ee857611ee7611e8b565b5b92915050565b6000611ef982611713565b91507fffffffffffffffffffffffffffffffffffffffffffffffffffffffffffffffff8203611f2b57611f2a611e8b565b5b600182019050919050565b7f4661696c656420746f2066696e642076616c6964206e6f6e636520776974686960008201527f6e20676173206c696d6974730000000000000000000000000000000000000000602082015250565b6000611f92602c83611781565b9150611f9d82611f36565b604082019050919050565b60006020820190508181036000830152611fc181611f85565b9050919050565b60008190508160005260206000209050919050565b60006020601f8301049050919050565b600082821b905092915050565b60006008830261202a7fffffffffffffffffffffffffffffffffffffffffffffffffffffffffffffffff82611fed565b6120348683611fed565b95508019841693508086168417925050509392505050565b6000819050919050565b600061207161206c61206784611713565b61204c565b611713565b9050919050565b6000819050919050565b61208b83612056565b61209f61209782612078565b848454611ffa565b825550505050565b600090565b6120b46120a7565b6120bf818484612082565b505050565b5b818110156120e3576120d86000826120ac565b6001810190506120c5565b5050565b601f821115612128576120f981611fc8565b61210284611fdd565b81016020851015612111578190505b61212561211d85611fdd565b8301826120c4565b50505b505050565b600082821c905092915050565b600061214b6000198460080261212d565b1980831691505092915050565b6000612164838361213a565b9150826002028217905092915050565b61217d82611776565b67ffffffffffffffff811115612196576121956118d7565b5b6121a08254611dee565b6121ab8282856120e7565b600060209050601f8311600181146121de57600084156121cc578287015190505b6121d68582612158565b86555061223e565b601f1984166121ec86611fc8565b60005b82811015612214578489015182556001820191506020850194506020810190506121ef565b86831015612231578489015161222d601f89168261213a565b8355505b6001600288020188555050505b505050505050565b7f416c726561647920617070726f766564206279207468697320617070726f766560008201527f7200000000000000000000000000000000000000000000000000000000000000602082015250565b60006122a2602183611781565b91506122ad82612246565b604082019050919050565b600060208201905081810360008301526122d181612295565b9050919050565b60006122e382611abd565b91506122ee83611abd565b9250828201905060ff81111561230757612306611e8b565b5b92915050565b60006060820190506123226000830186611806565b61232f602083018561181f565b61233c604083018461181f565b949350505050565b7f446966666963756c7479206d7573742062652067726561746572207468616e2060008201527f7a65726f00000000000000000000000000000000000000000000000000000000602082015250565b60006123a0602483611781565b91506123ab82612344565b604082019050919050565b600060208201905081810360008301526123cf81612393565b9050919050565b600081905092915050565b60006123ec82611776565b6123f681856123d6565b9350612406818560208601611792565b80840191505092915050565b6000819050919050565b61242d61242882611713565b612412565b82525050565b60008160601b9050919050565b600061244b82612433565b9050919050565b600061245d82612440565b9050919050565b61247561247082611bde565b612452565b82525050565b6000819050919050565b61249661249182611815565b61247b565b82525050565b60006124a8828b6123e1565b91506124b4828a6123e1565b91506124c0828961241c565b6020820191506124d082886123e1565b91506124dc8287612464565b6014820191506124ec8286612485565b6020820191506124fc828561241c565b60208201915061250c828461241c565b6020820191508190509998505050505050505050565b600061252d82611713565b915061253883611713565b925082820261254681611713565b9150828204841483151761255d5761255c611e8b565b5b509291505056fea2646970667358221220006d068ca99a41cfad3eaedce677670255d1b7f8c5f1123c27172f6796e064b064736f6c634300081b0033",
  "linkReferences": {},
  "deployedLinkReferences": {}
}