{
	"_format": "hh-sol-artifact-1",
	"contractName": "AuditTrail",
	"sourceName": "contracts/AuditTrails.sol",
	"abi": [
		{
			"inputs": [],
			"stateMutability": "nonpayable",
			"type": "constructor"
		},
		{
			"anonymous": false,
			"inputs": [
				{
					"indexed": false,
					"internalType": "uint256",
					"name": "index",
					"type": "uint256"
				},
				{
					"indexed": false,
					"internalType": "bytes32",
					"name": "blockHash",
					"type": "bytes32"
				},
				{
					"indexed": false,
					"internalType": "bytes32",
					"name": "prevHash",
					"type": "bytes32"
				}
			],
			"name": "BlockAdded",
			"type": "event"
		},
		{
			"inputs": [
				{
					"internalType": "string",
					"name": "sender",
					"type": "string"
				},
				{
					"internalType": "string",
					"name": "receiver",
					"type": "string"
				},
				{
					"internalType": "uint256",
					"name": "amount",
					"type": "uint256"
				},
				{
					"internalType": "string",
					"name": "purpose",
					"type": "string"
				}
			],
			"name": "addBlock",
			"outputs": [],
			"stateMutability": "nonpayable",
			"type": "function"
		},
		{
			"inputs": [],
			"name": "calculateSummaries",
			"outputs": [
				{
					"internalType": "uint256",
					"name": "totalTransactions",
					"type": "uint256"
				},
				{
					"internalType": "uint256",
					"name": "totalVolume",
					"type": "uint256"
				},
				{
					"internalType": "uint256",
					"name": "avgTransactionValue",
					"type": "uint256"
				}
			],
			"stateMutability": "view",
			"type": "function"
		},
		{
			"inputs": [
				{
					"internalType": "uint256",
					"name": "",
					"type": "uint256"
				}
			],
			"name": "chain",
			"outputs": [
				{
					"components": [
						{
							"internalType": "string",
							"name": "sender",
							"type": "string"
						},
						{
							"internalType": "string",
							"name": "receiver",
							"type": "string"
						},
						{
							"internalType": "uint256",
							"name": "amount",
							"type": "uint256"
						},
						{
							"internalType": "string",
							"name": "purpose",
							"type": "string"
						}
					],
					"internalType": "struct AuditTrail.Record",
					"name": "record",
					"type": "tuple"
				},
				{
					"internalType": "address",
					"name": "creatorId",
					"type": "address"
				},
				{
					"internalType": "bytes32",
					"name": "prevHash",
					"type": "bytes32"
				},
				{
					"internalType": "uint256",
					"name": "timestamp",
					"type": "uint256"
				},
				{
					"internalType": "uint256",
					"name": "nonce",
					"type": "uint256"
				},
				{
					"internalType": "bytes32",
					"name": "blockHash",
					"type": "bytes32"
				}
			],
			"stateMutability": "view",
			"type": "function"
		},
		{
			"inputs": [],
			"name": "difficulty",
			"outputs": [
				{
					"internalType": "uint256",
					"name": "",
					"type": "uint256"
				}
			],
			"stateMutability": "view",
			"type": "function"
		},
		{
			"inputs": [],
			"name": "getAllTransactions",
			"outputs": [
				{
					"components": [
						{
							"internalType": "string",
							"name": "sender",
							"type": "string"
						},
						{
							"internalType": "string",
							"name": "receiver",
							"type": "string"
						},
						{
							"internalType": "uint256",
							"name": "amount",
							"type": "uint256"
						},
						{
							"internalType": "string",
							"name": "purpose",
							"type": "string"
						}
					],
					"internalType": "struct AuditTrail.Record[]",
					"name": "",
					"type": "tuple[]"
				}
			],
			"stateMutability": "view",
			"type": "function"
		},
		{
			"inputs": [
				{
					"internalType": "uint256",
					"name": "index",
					"type": "uint256"
				}
			],
			"name": "getBlock",
			"outputs": [
				{
					"internalType": "string",
					"name": "sender",
					"type": "string"
				},
				{
					"internalType": "string",
					"name": "receiver",
					"type": "string"
				},
				{
					"internalType": "uint256",
					"name": "amount",
					"type": "uint256"
				},
				{
					"internalType": "string",
					"name": "purpose",
					"type": "string"
				},
				{
					"internalType": "bytes32",
					"name": "blockHash",
					"type": "bytes32"
				},
				{
					"internalType": "bytes32",
					"name": "prevHash",
					"type": "bytes32"
				},
				{
					"internalType": "uint256",
					"name": "timestamp",
					"type": "uint256"
				}
			],
			"stateMutability": "view",
			"type": "function"
		},
		{
			"inputs": [],
			"name": "getChainLength",
			"outputs": [
				{
					"internalType": "uint256",
					"name": "",
					"type": "uint256"
				}
			],
			"stateMutability": "view",
			"type": "function"
		},
		{
			"inputs": [
				{
					"internalType": "string",
					"name": "receiver",
					"type": "string"
				}
			],
			"name": "getReceiverTransactionHistory",
			"outputs": [
				{
					"components": [
						{
							"internalType": "string",
							"name": "sender",
							"type": "string"
						},
						{
							"internalType": "string",
							"name": "receiver",
							"type": "string"
						},
						{
							"internalType": "uint256",
							"name": "amount",
							"type": "uint256"
						},
						{
							"internalType": "string",
							"name": "purpose",
							"type": "string"
						}
					],
					"internalType": "struct AuditTrail.Record[]",
					"name": "",
					"type": "tuple[]"
				}
			],
			"stateMutability": "view",
			"type": "function"
		},
		{
			"inputs": [
				{
					"internalType": "string",
					"name": "purpose",
					"type": "string"
				}
			],
			"name": "getTransactionCountByPurpose",
			"outputs": [
				{
					"internalType": "uint256",
					"name": "count",
					"type": "uint256"
				}
			],
			"stateMutability": "view",
			"type": "function"
		},
		{
			"inputs": [
				{
					"internalType": "string",
					"name": "receiver",
					"type": "string"
				}
			],
			"name": "getTransactionCountByReceiver",
			"outputs": [
				{
					"internalType": "uint256",
					"name": "count",
					"type": "uint256"
				}
			],
			"stateMutability": "view",
			"type": "function"
		},
		{
			"inputs": [
				{
					"internalType": "string",
					"name": "sender",
					"type": "string"
				}
			],
			"name": "getTransactionCountBySender",
			"outputs": [
				{
					"internalType": "uint256",
					"name": "count",
					"type": "uint256"
				}
			],
			"stateMutability": "view",
			"type": "function"
		},
		{
			"inputs": [
				{
					"internalType": "string",
					"name": "sender",
					"type": "string"
				}
			],
			"name": "getTransactionHistory",
			"outputs": [
				{
					"components": [
						{
							"internalType": "string",
							"name": "sender",
							"type": "string"
						},
						{
							"internalType": "string",
							"name": "receiver",
							"type": "string"
						},
						{
							"internalType": "uint256",
							"name": "amount",
							"type": "uint256"
						},
						{
							"internalType": "string",
							"name": "purpose",
							"type": "string"
						}
					],
					"internalType": "struct AuditTrail.Record[]",
					"name": "",
					"type": "tuple[]"
				}
			],
			"stateMutability": "view",
			"type": "function"
		},
		{
			"inputs": [
				{
					"internalType": "string",
					"name": "purpose",
					"type": "string"
				}
			],
			"name": "getTransactionHistoryByPurpose",
			"outputs": [
				{
					"components": [
						{
							"internalType": "string",
							"name": "sender",
							"type": "string"
						},
						{
							"internalType": "string",
							"name": "receiver",
							"type": "string"
						},
						{
							"internalType": "uint256",
							"name": "amount",
							"type": "uint256"
						},
						{
							"internalType": "string",
							"name": "purpose",
							"type": "string"
						}
					],
					"internalType": "struct AuditTrail.Record[]",
					"name": "",
					"type": "tuple[]"
				}
			],
			"stateMutability": "view",
			"type": "function"
		},
		{
			"inputs": [
				{
					"internalType": "uint256",
					"name": "minAmount",
					"type": "uint256"
				},
				{
					"internalType": "uint256",
					"name": "maxAmount",
					"type": "uint256"
				}
			],
			"name": "getTransactionsByAmountRange",
			"outputs": [
				{
					"components": [
						{
							"internalType": "string",
							"name": "sender",
							"type": "string"
						},
						{
							"internalType": "string",
							"name": "receiver",
							"type": "string"
						},
						{
							"internalType": "uint256",
							"name": "amount",
							"type": "uint256"
						},
						{
							"internalType": "string",
							"name": "purpose",
							"type": "string"
						}
					],
					"internalType": "struct AuditTrail.Record[]",
					"name": "",
					"type": "tuple[]"
				}
			],
			"stateMutability": "view",
			"type": "function"
		},
		{
			"inputs": [],
			"name": "isValid",
			"outputs": [
				{
					"internalType": "bool",
					"name": "",
					"type": "bool"
				}
			],
			"stateMutability": "view",
			"type": "function"
		},
		{
			"inputs": [
				{
					"internalType": "uint256",
					"name": "_difficulty",
					"type": "uint256"
				}
			],
			"name": "setDifficulty",
			"outputs": [],
			"stateMutability": "nonpayable",
			"type": "function"
		}
	],
	"bytecode": "0x60806040526001805534801561001457600080fd5b50600060405160200161002690610295565b60405160208183030381529060405280519060200120905060006040518060c0016040528060405180608001604052806040518060400160405280600781526020017f47656e657369730000000000000000000000000000000000000000000000000081525081526020016040518060400160405280600781526020017f47656e65736973000000000000000000000000000000000000000000000000008152508152602001600081526020016040518060400160405280600d81526020017f47656e6573697320426c6f636b0000000000000000000000000000000000000081525081525081526020013373ffffffffffffffffffffffffffffffffffffffff1681526020016000801b815260200142815260200160008152602001838152509080600181540180825580915050600190039060005260206000209060090201600090919091909150600082015181600001600082015181600001908161018e91906104fa565b5060208201518160010190816101a491906104fa565b506040820151816002015560608201518160030190816101c491906104fa565b50505060208201518160040160006101000a81548173ffffffffffffffffffffffffffffffffffffffff021916908373ffffffffffffffffffffffffffffffffffffffff16021790555060408201518160050155606082015181600601556080820151816007015560a082015181600801555050506105cc565b600081905092915050565b7f47656e6573697300000000000000000000000000000000000000000000000000600082015250565b600061027f60078361023e565b915061028a82610249565b600782019050919050565b60006102a082610272565b9150819050919050565b600081519050919050565b7f4e487b7100000000000000000000000000000000000000000000000000000000600052604160045260246000fd5b7f4e487b7100000000000000000000000000000000000000000000000000000000600052602260045260246000fd5b6000600282049050600182168061032b57607f821691505b60208210810361033e5761033d6102e4565b5b50919050565b60008190508160005260206000209050919050565b60006020601f8301049050919050565b600082821b905092915050565b6000600883026103a67fffffffffffffffffffffffffffffffffffffffffffffffffffffffffffffffff82610369565b6103b08683610369565b95508019841693508086168417925050509392505050565b6000819050919050565b6000819050919050565b60006103f76103f26103ed846103c8565b6103d2565b6103c8565b9050919050565b6000819050919050565b610411836103dc565b61042561041d826103fe565b848454610376565b825550505050565b600090565b61043a61042d565b610445818484610408565b505050565b5b818110156104695761045e600082610432565b60018101905061044b565b5050565b601f8211156104ae5761047f81610344565b61048884610359565b81016020851015610497578190505b6104ab6104a385610359565b83018261044a565b50505b505050565b600082821c905092915050565b60006104d1600019846008026104b3565b1980831691505092915050565b60006104ea83836104c0565b9150826002028217905092915050565b610503826102aa565b67ffffffffffffffff81111561051c5761051b6102b5565b5b6105268254610313565b61053182828561046d565b600060209050601f8311600181146105645760008415610552578287015190505b61055c85826104de565b8655506105c4565b601f19841661057286610344565b60005b8281101561059a57848901518255600182019150602085019450602081019050610575565b868310156105b757848901516105b3601f8916826104c0565b8355505b6001600288020188555050505b505050505050565b613914806105db6000396000f3fe608060405234801561001057600080fd5b50600436106101005760003560e01c8063657529ef116100975780638f2bab07116100665780638f2bab07146102f4578063b48decf914610312578063bb5d40eb14610342578063d9230ff41461036057610100565b8063657529ef1461024857806372d64f8614610278578063743306a7146102945780638ccecc26146102c457610100565b806327506f53116100d357806327506f53146101b95780635852cc0c146101d7578063602512e11461020c57806362f198991461022857610100565b806304c07569146101055780631585df5b1461013b57806319cae4621461016b57806321bd23b114610189575b600080fd5b61011f600480360381019061011a919061295a565b610390565b6040516101329796959493929190612a3f565b60405180910390f35b61015560048036038101906101509190612ac3565b6106b1565b6040516101629190612c8f565b60405180910390f35b610173610a54565b6040516101809190612cb1565b60405180910390f35b6101a3600480360381019061019e9190612e01565b610a5a565b6040516101b09190612c8f565b60405180910390f35b6101c1610e34565b6040516101ce9190612c8f565b60405180910390f35b6101f160048036038101906101ec919061295a565b6110e8565b60405161020396959493929190612efc565b60405180910390f35b6102266004803603810190610221919061295a565b61131e565b005b61023061136b565b60405161023f93929190612f64565b60405180910390f35b610262600480360381019061025d9190612e01565b6113f9565b60405161026f9190612cb1565b60405180910390f35b610292600480360381019061028d9190612f9b565b6114aa565b005b6102ae60048036038101906102a99190612e01565b61199c565b6040516102bb9190612c8f565b60405180910390f35b6102de60048036038101906102d99190612e01565b611d76565b6040516102eb9190612cb1565b60405180910390f35b6102fc611e27565b6040516103099190612cb1565b60405180910390f35b61032c60048036038101906103279190612e01565b611e33565b6040516103399190612c8f565b60405180910390f35b61034a61220d565b6040516103579190613071565b60405180910390f35b61037a60048036038101906103759190612e01565b6127c2565b6040516103879190612cb1565b60405180910390f35b606080600060606000806000808054905088106103e2576040517f08c379a00000000000000000000000000000000000000000000000000000000081526004016103d9906130d8565b60405180910390fd5b60008089815481106103f7576103f66130f8565b5b90600052602060002090600902016040518060c00160405290816000820160405180608001604052908160008201805461043090613156565b80601f016020809104026020016040519081016040528092919081815260200182805461045c90613156565b80156104a95780601f1061047e576101008083540402835291602001916104a9565b820191906000526020600020905b81548152906001019060200180831161048c57829003601f168201915b505050505081526020016001820180546104c290613156565b80601f01602080910402602001604051908101604052809291908181526020018280546104ee90613156565b801561053b5780601f106105105761010080835404028352916020019161053b565b820191906000526020600020905b81548152906001019060200180831161051e57829003601f168201915b505050505081526020016002820154815260200160038201805461055e90613156565b80601f016020809104026020016040519081016040528092919081815260200182805461058a90613156565b80156105d75780601f106105ac576101008083540402835291602001916105d7565b820191906000526020600020905b8154815290600101906020018083116105ba57829003601f168201915b50505050508152505081526020016004820160009054906101000a900473ffffffffffffffffffffffffffffffffffffffff1673ffffffffffffffffffffffffffffffffffffffff1673ffffffffffffffffffffffffffffffffffffffff16815260200160058201548152602001600682015481526020016007820154815260200160088201548152505090508060000151600001518160000151602001518260000151604001518360000151606001518460a0015185604001518660600151975097509750975097509750975050919395979092949650565b6060600060016000805490506106c791906131b6565b67ffffffffffffffff8111156106e0576106df612cd6565b5b60405190808252806020026020018201604052801561071957816020015b6107066128e8565b8152602001906001900390816106fe5790505b509050600080600190505b60008054905081101561099d576000808281548110610746576107456130f8565b5b906000526020600020906009020160000160020154905086811015801561076d5750858111155b1561098f5760008281548110610786576107856130f8565b5b90600052602060002090600902016000016040518060800160405290816000820180546107b290613156565b80601f01602080910402602001604051908101604052809291908181526020018280546107de90613156565b801561082b5780601f106108005761010080835404028352916020019161082b565b820191906000526020600020905b81548152906001019060200180831161080e57829003601f168201915b5050505050815260200160018201805461084490613156565b80601f016020809104026020016040519081016040528092919081815260200182805461087090613156565b80156108bd5780601f10610892576101008083540402835291602001916108bd565b820191906000526020600020905b8154815290600101906020018083116108a057829003601f168201915b50505050508152602001600282015481526020016003820180546108e090613156565b80601f016020809104026020016040519081016040528092919081815260200182805461090c90613156565b80156109595780601f1061092e57610100808354040283529160200191610959565b820191906000526020600020905b81548152906001019060200180831161093c57829003601f168201915b505050505081525050848481518110610975576109746130f8565b5b6020026020010181905250828061098b906131ea565b9350505b508080600101915050610724565b5060008167ffffffffffffffff8111156109ba576109b9612cd6565b5b6040519080825280602002602001820160405280156109f357816020015b6109e06128e8565b8152602001906001900390816109d85790505b50905060005b82811015610a4757838181518110610a1457610a136130f8565b5b6020026020010151828281518110610a2f57610a2e6130f8565b5b602002602001018190525080806001019150506109f9565b5080935050505092915050565b60015481565b606060006001600080549050610a7091906131b6565b67ffffffffffffffff811115610a8957610a88612cd6565b5b604051908082528060200260200182016040528015610ac257816020015b610aaf6128e8565b815260200190600190039081610aa75790505b509050600080600190505b600080549050811015610d7e5784604051602001610aeb919061326e565b6040516020818303038152906040528051906020012060008281548110610b1557610b146130f8565b5b9060005260206000209060090201600001600001604051602001610b39919061331d565b6040516020818303038152906040528051906020012003610d715760008181548110610b6857610b676130f8565b5b9060005260206000209060090201600001604051806080016040529081600082018054610b9490613156565b80601f0160208091040260200160405190810160405280929190818152602001828054610bc090613156565b8015610c0d5780601f10610be257610100808354040283529160200191610c0d565b820191906000526020600020905b815481529060010190602001808311610bf057829003601f168201915b50505050508152602001600182018054610c2690613156565b80601f0160208091040260200160405190810160405280929190818152602001828054610c5290613156565b8015610c9f5780601f10610c7457610100808354040283529160200191610c9f565b820191906000526020600020905b815481529060010190602001808311610c8257829003601f168201915b5050505050815260200160028201548152602001600382018054610cc290613156565b80601f0160208091040260200160405190810160405280929190818152602001828054610cee90613156565b8015610d3b5780601f10610d1057610100808354040283529160200191610d3b565b820191906000526020600020905b815481529060010190602001808311610d1e57829003601f168201915b505050505081525050838381518110610d5757610d566130f8565b5b60200260200101819052508180610d6d906131ea565b9250505b8080600101915050610acd565b5060008167ffffffffffffffff811115610d9b57610d9a612cd6565b5b604051908082528060200260200182016040528015610dd457816020015b610dc16128e8565b815260200190600190039081610db95790505b50905060005b82811015610e2857838181518110610df557610df46130f8565b5b6020026020010151828281518110610e1057610e0f6130f8565b5b60200260200101819052508080600101915050610dda565b50809350505050919050565b606060006001600080549050610e4a91906131b6565b905060008167ffffffffffffffff811115610e6857610e67612cd6565b5b604051908082528060200260200182016040528015610ea157816020015b610e8e6128e8565b815260200190600190039081610e865790505b5090506000600190505b6000805490508110156110df5760008181548110610ecc57610ecb6130f8565b5b9060005260206000209060090201600001604051806080016040529081600082018054610ef890613156565b80601f0160208091040260200160405190810160405280929190818152602001828054610f2490613156565b8015610f715780601f10610f4657610100808354040283529160200191610f71565b820191906000526020600020905b815481529060010190602001808311610f5457829003601f168201915b50505050508152602001600182018054610f8a90613156565b80601f0160208091040260200160405190810160405280929190818152602001828054610fb690613156565b80156110035780601f10610fd857610100808354040283529160200191611003565b820191906000526020600020905b815481529060010190602001808311610fe657829003601f168201915b505050505081526020016002820154815260200160038201805461102690613156565b80601f016020809104026020016040519081016040528092919081815260200182805461105290613156565b801561109f5780601f106110745761010080835404028352916020019161109f565b820191906000526020600020905b81548152906001019060200180831161108257829003601f168201915b505050505081525050826001836110b691906131b6565b815181106110c7576110c66130f8565b5b60200260200101819052508080600101915050610eab565b50809250505090565b600081815481106110f857600080fd5b90600052602060002090600902016000915090508060000160405180608001604052908160008201805461112b90613156565b80601f016020809104026020016040519081016040528092919081815260200182805461115790613156565b80156111a45780601f10611179576101008083540402835291602001916111a4565b820191906000526020600020905b81548152906001019060200180831161118757829003601f168201915b505050505081526020016001820180546111bd90613156565b80601f01602080910402602001604051908101604052809291908181526020018280546111e990613156565b80156112365780601f1061120b57610100808354040283529160200191611236565b820191906000526020600020905b81548152906001019060200180831161121957829003601f168201915b505050505081526020016002820154815260200160038201805461125990613156565b80601f016020809104026020016040519081016040528092919081815260200182805461128590613156565b80156112d25780601f106112a7576101008083540402835291602001916112d2565b820191906000526020600020905b8154815290600101906020018083116112b557829003601f168201915b505050505081525050908060040160009054906101000a900473ffffffffffffffffffffffffffffffffffffffff16908060050154908060060154908060070154908060080154905086565b60008111611361576040517f08c379a0000000000000000000000000000000000000000000000000000000008152600401611358906133a6565b60405180910390fd5b8060018190555050565b6000806000600160008054905061138291906131b6565b92506000600190505b6000805490508110156113db57600081815481106113ac576113ab6130f8565b5b906000526020600020906009020160000160020154836113cc91906133c6565b9250808060010191505061138b565b5060008311156113f45782826113f19190613429565b90505b909192565b600080600190505b6000805490508110156114a4578260405160200161141f919061326e565b6040516020818303038152906040528051906020012060008281548110611449576114486130f8565b5b906000526020600020906009020160000160000160405160200161146d919061331d565b6040516020818303038152906040528051906020012003611497578180611493906131ea565b9250505b8080600101915050611401565b50919050565b60008060016000805490506114bf91906131b6565b815481106114d0576114cf6130f8565b5b90600052602060002090600902016040518060c00160405290816000820160405180608001604052908160008201805461150990613156565b80601f016020809104026020016040519081016040528092919081815260200182805461153590613156565b80156115825780601f1061155757610100808354040283529160200191611582565b820191906000526020600020905b81548152906001019060200180831161156557829003601f168201915b5050505050815260200160018201805461159b90613156565b80601f01602080910402602001604051908101604052809291908181526020018280546115c790613156565b80156116145780601f106115e957610100808354040283529160200191611614565b820191906000526020600020905b8154815290600101906020018083116115f757829003601f168201915b505050505081526020016002820154815260200160038201805461163790613156565b80601f016020809104026020016040519081016040528092919081815260200182805461166390613156565b80156116b05780601f10611685576101008083540402835291602001916116b0565b820191906000526020600020905b81548152906001019060200180831161169357829003601f168201915b50505050508152505081526020016004820160009054906101000a900473ffffffffffffffffffffffffffffffffffffffff1673ffffffffffffffffffffffffffffffffffffffff1673ffffffffffffffffffffffffffffffffffffffff16815260200160058201548152602001600682015481526020016007820154815260200160088201548152505090506000808042905060006103e890506000805b8281101561179f5761176b8b8b8b8b338c60a001518a8d612873565b9450611776856128b8565b15611784576001915061179f565b858061178f906131ea565b965050808060010191505061174f565b50806117e0576040517f08c379a00000000000000000000000000000000000000000000000000000000081526004016117d7906134cc565b60405180910390fd5b60006040518060c0016040528060405180608001604052808e81526020018d81526020018c81526020018b81525081526020013373ffffffffffffffffffffffffffffffffffffffff1681526020018860a001518152602001858152602001878152602001868152509050600081908060018154018082558091505060019003906000526020600020906009020160009091909190915060008201518160000160008201518160000190816118959190613683565b5060208201518160010190816118ab9190613683565b506040820151816002015560608201518160030190816118cb9190613683565b50505060208201518160040160006101000a81548173ffffffffffffffffffffffffffffffffffffffff021916908373ffffffffffffffffffffffffffffffffffffffff16021790555060408201518160050155606082015181600601556080820151816007015560a0820151816008015550507f146cdcb5e4aa13ca650cb5e8bda0e95a5cd3a1651990bd96048c14a9191d6e89600160008054905061197291906131b6565b868960a0015160405161198793929190613755565b60405180910390a15050505050505050505050565b6060600060016000805490506119b291906131b6565b67ffffffffffffffff8111156119cb576119ca612cd6565b5b604051908082528060200260200182016040528015611a0457816020015b6119f16128e8565b8152602001906001900390816119e95790505b509050600080600190505b600080549050811015611cc05784604051602001611a2d919061326e565b6040516020818303038152906040528051906020012060008281548110611a5757611a566130f8565b5b9060005260206000209060090201600001600301604051602001611a7b919061331d565b6040516020818303038152906040528051906020012003611cb35760008181548110611aaa57611aa96130f8565b5b9060005260206000209060090201600001604051806080016040529081600082018054611ad690613156565b80601f0160208091040260200160405190810160405280929190818152602001828054611b0290613156565b8015611b4f5780601f10611b2457610100808354040283529160200191611b4f565b820191906000526020600020905b815481529060010190602001808311611b3257829003601f168201915b50505050508152602001600182018054611b6890613156565b80601f0160208091040260200160405190810160405280929190818152602001828054611b9490613156565b8015611be15780601f10611bb657610100808354040283529160200191611be1565b820191906000526020600020905b815481529060010190602001808311611bc457829003601f168201915b5050505050815260200160028201548152602001600382018054611c0490613156565b80601f0160208091040260200160405190810160405280929190818152602001828054611c3090613156565b8015611c7d5780601f10611c5257610100808354040283529160200191611c7d565b820191906000526020600020905b815481529060010190602001808311611c6057829003601f168201915b505050505081525050838381518110611c9957611c986130f8565b5b60200260200101819052508180611caf906131ea565b9250505b8080600101915050611a0f565b5060008167ffffffffffffffff811115611cdd57611cdc612cd6565b5b604051908082528060200260200182016040528015611d1657816020015b611d036128e8565b815260200190600190039081611cfb5790505b50905060005b82811015611d6a57838181518110611d3757611d366130f8565b5b6020026020010151828281518110611d5257611d516130f8565b5b60200260200101819052508080600101915050611d1c565b50809350505050919050565b600080600190505b600080549050811015611e215782604051602001611d9c919061326e565b6040516020818303038152906040528051906020012060008281548110611dc657611dc56130f8565b5b9060005260206000209060090201600001600101604051602001611dea919061331d565b6040516020818303038152906040528051906020012003611e14578180611e10906131ea565b9250505b8080600101915050611d7e565b50919050565b60008080549050905090565b606060006001600080549050611e4991906131b6565b67ffffffffffffffff811115611e6257611e61612cd6565b5b604051908082528060200260200182016040528015611e9b57816020015b611e886128e8565b815260200190600190039081611e805790505b509050600080600190505b6000805490508110156121575784604051602001611ec4919061326e565b6040516020818303038152906040528051906020012060008281548110611eee57611eed6130f8565b5b9060005260206000209060090201600001600101604051602001611f12919061331d565b604051602081830303815290604052805190602001200361214a5760008181548110611f4157611f406130f8565b5b9060005260206000209060090201600001604051806080016040529081600082018054611f6d90613156565b80601f0160208091040260200160405190810160405280929190818152602001828054611f9990613156565b8015611fe65780601f10611fbb57610100808354040283529160200191611fe6565b820191906000526020600020905b815481529060010190602001808311611fc957829003601f168201915b50505050508152602001600182018054611fff90613156565b80601f016020809104026020016040519081016040528092919081815260200182805461202b90613156565b80156120785780601f1061204d57610100808354040283529160200191612078565b820191906000526020600020905b81548152906001019060200180831161205b57829003601f168201915b505050505081526020016002820154815260200160038201805461209b90613156565b80601f01602080910402602001604051908101604052809291908181526020018280546120c790613156565b80156121145780601f106120e957610100808354040283529160200191612114565b820191906000526020600020905b8154815290600101906020018083116120f757829003601f168201915b5050505050815250508383815181106121305761212f6130f8565b5b60200260200101819052508180612146906131ea565b9250505b8080600101915050611ea6565b5060008167ffffffffffffffff81111561217457612173612cd6565b5b6040519080825280602002602001820160405280156121ad57816020015b61219a6128e8565b8152602001906001900390816121925790505b50905060005b82811015612201578381815181106121ce576121cd6130f8565b5b60200260200101518282815181106121e9576121e86130f8565b5b602002602001018190525080806001019150506121b3565b50809350505050919050565b600080600190505b6000805490508110156127b9576000808281548110612237576122366130f8565b5b90600052602060002090600902016040518060c00160405290816000820160405180608001604052908160008201805461227090613156565b80601f016020809104026020016040519081016040528092919081815260200182805461229c90613156565b80156122e95780601f106122be576101008083540402835291602001916122e9565b820191906000526020600020905b8154815290600101906020018083116122cc57829003601f168201915b5050505050815260200160018201805461230290613156565b80601f016020809104026020016040519081016040528092919081815260200182805461232e90613156565b801561237b5780601f106123505761010080835404028352916020019161237b565b820191906000526020600020905b81548152906001019060200180831161235e57829003601f168201915b505050505081526020016002820154815260200160038201805461239e90613156565b80601f01602080910402602001604051908101604052809291908181526020018280546123ca90613156565b80156124175780601f106123ec57610100808354040283529160200191612417565b820191906000526020600020905b8154815290600101906020018083116123fa57829003601f168201915b50505050508152505081526020016004820160009054906101000a900473ffffffffffffffffffffffffffffffffffffffff1673ffffffffffffffffffffffffffffffffffffffff1673ffffffffffffffffffffffffffffffffffffffff16815260200160058201548152602001600682015481526020016007820154815260200160088201548152505090506000806001846124b491906131b6565b815481106124c5576124c46130f8565b5b90600052602060002090600902016040518060c0016040529081600082016040518060800160405290816000820180546124fe90613156565b80601f016020809104026020016040519081016040528092919081815260200182805461252a90613156565b80156125775780601f1061254c57610100808354040283529160200191612577565b820191906000526020600020905b81548152906001019060200180831161255a57829003601f168201915b5050505050815260200160018201805461259090613156565b80601f01602080910402602001604051908101604052809291908181526020018280546125bc90613156565b80156126095780601f106125de57610100808354040283529160200191612609565b820191906000526020600020905b8154815290600101906020018083116125ec57829003601f168201915b505050505081526020016002820154815260200160038201805461262c90613156565b80601f016020809104026020016040519081016040528092919081815260200182805461265890613156565b80156126a55780601f1061267a576101008083540402835291602001916126a5565b820191906000526020600020905b81548152906001019060200180831161268857829003601f168201915b50505050508152505081526020016004820160009054906101000a900473ffffffffffffffffffffffffffffffffffffffff1673ffffffffffffffffffffffffffffffffffffffff1673ffffffffffffffffffffffffffffffffffffffff16815260200160058201548152602001600682015481526020016007820154815260200160088201548152505090508060a0015182604001511461274d57600093505050506127bf565b600061278f8360000151600001518460000151602001518560000151604001518660000151606001518760200151886040015189606001518a60800151612873565b90508260a0015181146127a95760009450505050506127bf565b5050508080600101915050612215565b50600190505b90565b600080600190505b60008054905081101561286d57826040516020016127e8919061326e565b6040516020818303038152906040528051906020012060008281548110612812576128116130f8565b5b9060005260206000209060090201600001600301604051602001612836919061331d565b604051602081830303815290604052805190602001200361286057818061285c906131ea565b9250505b80806001019150506127ca565b50919050565b60008888888888888888604051602001612894989796959493929190613816565b60405160208183030381529060405280519060200120905098975050505050505050565b600060106001546128c9919061389c565b6101006128d691906131b6565b60ff8360001c1660ff16109050919050565b6040518060800160405280606081526020016060815260200160008152602001606081525090565b6000604051905090565b600080fd5b600080fd5b6000819050919050565b61293781612924565b811461294257600080fd5b50565b6000813590506129548161292e565b92915050565b6000602082840312156129705761296f61291a565b5b600061297e84828501612945565b91505092915050565b600081519050919050565b600082825260208201905092915050565b60005b838110156129c15780820151818401526020810190506129a6565b60008484015250505050565b6000601f19601f8301169050919050565b60006129e982612987565b6129f38185612992565b9350612a038185602086016129a3565b612a0c816129cd565b840191505092915050565b612a2081612924565b82525050565b6000819050919050565b612a3981612a26565b82525050565b600060e0820190508181036000830152612a59818a6129de565b90508181036020830152612a6d81896129de565b9050612a7c6040830188612a17565b8181036060830152612a8e81876129de565b9050612a9d6080830186612a30565b612aaa60a0830185612a30565b612ab760c0830184612a17565b98975050505050505050565b60008060408385031215612ada57612ad961291a565b5b6000612ae885828601612945565b9250506020612af985828601612945565b9150509250929050565b600081519050919050565b600082825260208201905092915050565b6000819050602082019050919050565b600082825260208201905092915050565b6000612b4b82612987565b612b558185612b2f565b9350612b658185602086016129a3565b612b6e816129cd565b840191505092915050565b612b8281612924565b82525050565b60006080830160008301518482036000860152612ba58282612b40565b91505060208301518482036020860152612bbf8282612b40565b9150506040830151612bd46040860182612b79565b5060608301518482036060860152612bec8282612b40565b9150508091505092915050565b6000612c058383612b88565b905092915050565b6000602082019050919050565b6000612c2582612b03565b612c2f8185612b0e565b935083602082028501612c4185612b1f565b8060005b85811015612c7d5784840389528151612c5e8582612bf9565b9450612c6983612c0d565b925060208a01995050600181019050612c45565b50829750879550505050505092915050565b60006020820190508181036000830152612ca98184612c1a565b905092915050565b6000602082019050612cc66000830184612a17565b92915050565b600080fd5b600080fd5b7f4e487b7100000000000000000000000000000000000000000000000000000000600052604160045260246000fd5b612d0e826129cd565b810181811067ffffffffffffffff82111715612d2d57612d2c612cd6565b5b80604052505050565b6000612d40612910565b9050612d4c8282612d05565b919050565b600067ffffffffffffffff821115612d6c57612d6b612cd6565b5b612d75826129cd565b9050602081019050919050565b82818337600083830152505050565b6000612da4612d9f84612d51565b612d36565b905082815260208101848484011115612dc057612dbf612cd1565b5b612dcb848285612d82565b509392505050565b600082601f830112612de857612de7612ccc565b5b8135612df8848260208601612d91565b91505092915050565b600060208284031215612e1757612e1661291a565b5b600082013567ffffffffffffffff811115612e3557612e3461291f565b5b612e4184828501612dd3565b91505092915050565b60006080830160008301518482036000860152612e678282612b40565b91505060208301518482036020860152612e818282612b40565b9150506040830151612e966040860182612b79565b5060608301518482036060860152612eae8282612b40565b9150508091505092915050565b600073ffffffffffffffffffffffffffffffffffffffff82169050919050565b6000612ee682612ebb565b9050919050565b612ef681612edb565b82525050565b600060c0820190508181036000830152612f168189612e4a565b9050612f256020830188612eed565b612f326040830187612a30565b612f3f6060830186612a17565b612f4c6080830185612a17565b612f5960a0830184612a30565b979650505050505050565b6000606082019050612f796000830186612a17565b612f866020830185612a17565b612f936040830184612a17565b949350505050565b60008060008060808587031215612fb557612fb461291a565b5b600085013567ffffffffffffffff811115612fd357612fd261291f565b5b612fdf87828801612dd3565b945050602085013567ffffffffffffffff81111561300057612fff61291f565b5b61300c87828801612dd3565b935050604061301d87828801612945565b925050606085013567ffffffffffffffff81111561303e5761303d61291f565b5b61304a87828801612dd3565b91505092959194509250565b60008115159050919050565b61306b81613056565b82525050565b60006020820190506130866000830184613062565b92915050565b7f496e76616c696420626c6f636b20696e64657800000000000000000000000000600082015250565b60006130c2601383612992565b91506130cd8261308c565b602082019050919050565b600060208201905081810360008301526130f1816130b5565b9050919050565b7f4e487b7100000000000000000000000000000000000000000000000000000000600052603260045260246000fd5b7f4e487b7100000000000000000000000000000000000000000000000000000000600052602260045260246000fd5b6000600282049050600182168061316e57607f821691505b60208210810361318157613180613127565b5b50919050565b7f4e487b7100000000000000000000000000000000000000000000000000000000600052601160045260246000fd5b60006131c182612924565b91506131cc83612924565b92508282039050818111156131e4576131e3613187565b5b92915050565b60006131f582612924565b91507fffffffffffffffffffffffffffffffffffffffffffffffffffffffffffffffff820361322757613226613187565b5b600182019050919050565b600081905092915050565b600061324882612987565b6132528185613232565b93506132628185602086016129a3565b80840191505092915050565b600061327a828461323d565b915081905092915050565b60008190508160005260206000209050919050565b600081546132a781613156565b6132b18186613232565b945060018216600081146132cc57600181146132e157613314565b60ff1983168652811515820286019350613314565b6132ea85613285565b60005b8381101561330c578154818901526001820191506020810190506132ed565b838801955050505b50505092915050565b6000613329828461329a565b915081905092915050565b7f446966666963756c7479206d7573742062652067726561746572207468616e2060008201527f7a65726f00000000000000000000000000000000000000000000000000000000602082015250565b6000613390602483612992565b915061339b82613334565b604082019050919050565b600060208201905081810360008301526133bf81613383565b9050919050565b60006133d182612924565b91506133dc83612924565b92508282019050808211156133f4576133f3613187565b5b92915050565b7f4e487b7100000000000000000000000000000000000000000000000000000000600052601260045260246000fd5b600061343482612924565b915061343f83612924565b92508261344f5761344e6133fa565b5b828204905092915050565b7f4661696c656420746f2066696e642076616c6964206e6f6e636520776974686960008201527f6e20676173206c696d6974730000000000000000000000000000000000000000602082015250565b60006134b6602c83612992565b91506134c18261345a565b604082019050919050565b600060208201905081810360008301526134e5816134a9565b9050919050565b60006020601f8301049050919050565b600082821b905092915050565b6000600883026135397fffffffffffffffffffffffffffffffffffffffffffffffffffffffffffffffff826134fc565b61354386836134fc565b95508019841693508086168417925050509392505050565b6000819050919050565b600061358061357b61357684612924565b61355b565b612924565b9050919050565b6000819050919050565b61359a83613565565b6135ae6135a682613587565b848454613509565b825550505050565b600090565b6135c36135b6565b6135ce818484613591565b505050565b5b818110156135f2576135e76000826135bb565b6001810190506135d4565b5050565b601f8211156136375761360881613285565b613611846134ec565b81016020851015613620578190505b61363461362c856134ec565b8301826135d3565b50505b505050565b600082821c905092915050565b600061365a6000198460080261363c565b1980831691505092915050565b60006136738383613649565b9150826002028217905092915050565b61368c82612987565b67ffffffffffffffff8111156136a5576136a4612cd6565b5b6136af8254613156565b6136ba8282856135f6565b600060209050601f8311600181146136ed57600084156136db578287015190505b6136e58582613667565b86555061374d565b601f1984166136fb86613285565b60005b82811015613723578489015182556001820191506020850194506020810190506136fe565b86831015613740578489015161373c601f891682613649565b8355505b6001600288020188555050505b505050505050565b600060608201905061376a6000830186612a17565b6137776020830185612a30565b6137846040830184612a30565b949350505050565b6000819050919050565b6137a76137a282612924565b61378c565b82525050565b60008160601b9050919050565b60006137c5826137ad565b9050919050565b60006137d7826137ba565b9050919050565b6137ef6137ea82612edb565b6137cc565b82525050565b6000819050919050565b61381061380b82612a26565b6137f5565b82525050565b6000613822828b61323d565b915061382e828a61323d565b915061383a8289613796565b60208201915061384a828861323d565b915061385682876137de565b60148201915061386682866137ff565b6020820191506138768285613796565b6020820191506138868284613796565b6020820191508190509998505050505050505050565b60006138a782612924565b91506138b283612924565b92508282026138c081612924565b915082820484148315176138d7576138d6613187565b5b509291505056fea2646970667358221220886d105d6d1bf038a7a110026364c6650a247368d3a31db28d0b7103cc337afb64736f6c634300081b0033",
	"linkReferences": {},
	"deployedLinkReferences": {}
}